MM "Goerli" accounts:
    Mnemonic:   physical eagle dry banana embrace aisle virtual spell modify series doctor tonight
    Seed:       4d4346800c9af59ad8c3cae3c1d80b8a54b5a834e5ce484922823858c18148453a6711dc9b1b0f2ad0b91f203892950eb2372755f3feda77cab9316fde2eca12

MM "Goerli 1" account:
    Derivation path:    m/44'/60'/0'/0/0
    Private Key:        0x67719fc5f6586d6b5975b77af4e3d5b4d1824937d81c6cd142ae1db5e97a010f
    Public Key:         0x03767fe407553ba34b1e4c4e52f3c2b54d4ec124c31ff148cfbefce1246c8286b0
    Address:            0x241a383244C822dfDaa3FAb5dBF5127Cd03A773f

MM "Goerli 2" account:
    Derivation path:    m/44'/60'/0'/0/1
    Private Key:        0x730a670bba489d4d49b431bbe41847b7b4cff0e34314a219f0b061e33e0b073a
    Public Key:         0x027cfc6447ae124127d5815111768e7435d5d8e442142e4f0155e963f00a4e815f
    Address:            0x1DcF117c651e34c9E0e397B271bC59477b0Fd0Fa

Transaction "Goerli 1" => "Goerli 2":
    URL:
                        https://goerli.etherscan.io/tx/0xcecd422c2e5dcaa8195cb44fac50cc335a307bc8e19f915c3deb263e28238aa5
    Raw transaction:    
                        0x02||0xf872050784773594008502540be400825208941dcf117c651e34c9e0e397b271bc59477b0fd0fa87038d7ea4c6800080c0
                        ||0x01
                        ||0xa0||0x70d792a4cb7568ecee34f03b1c271a721aa9b75c78c8f4871c2f256a588148e3
                        ||0xa0||0x503bcb74c5b6eff009436c1b262e8640d509a5b09691482c999ba80733cc18c2

    Transaction hash:   
                        0xcecd422c2e5dcaa8195cb44fac50cc335a307bc8e19f915c3deb263e28238aa5  ( = Keccak256(Raw transaction) )
  
    SIGNED:
    transaction_type:                       0x02    (EIP1559)    
    RLP list/size:              0xf7+0x01/  0x72 = 9 Bytes RLP headers + 105(0x69) Bytes RLP payload    > 55 Bytes
    chain_id:                               0x05            (GOERLI)
    nonce:                                  0x07
    max_priority_fee_per_gas:   0x80+0x04/  0x77359400      ( 2E+09 =  2 GWEI)
    max_fee_per_gas:            0x80+0x05/  0x02540be400    (10E+09 = 10 GWEI)
    gas_limit:                  0x80+0x02/  0x5208              ( = 21000 WEI)
    to:                         0x80+0x14/  0x1dcf117c651e34c9e0e397b271bc59477b0fd0fa
    eth:                        0x80+0x07/  0x038d7ea4c68000    (0.001E+18 = 0.001 ETH)
    data:                       0x80
    access_list:                0xc0
    signature_y_parity:                     0x01
    signature_r:                0x80+0x20/  0x70d792a4cb7568ecee34f03b1c271a721aa9b75c78c8f4871c2f256a588148e3
    signature_s:                0x80+0x20/  0x503bcb74c5b6eff009436c1b262e8640d509a5b09691482c999ba80733cc18c2

    SIGNING PAYLOAD:
    transaction_type:                       0x02    (EIP1559)
    RLP list/size:              0xc0+0x2F       = 7 Bytes RLP headers + 40(0x28) Bytes RLP payload      <= 55 Bytes
    chain_id:                               0x05            (GOERLI)
    nonce:                                  0x07
    max_priority_fee_per_gas:   0x80+0x04/  0x77359400      ( 2E+09 =  2 GWEI)
    max_fee_per_gas:            0x80+0x05/  0x02540be400    (10E+09 = 10 GWEI)
    gas_limit:                  0x80+0x02/  0x5208              ( = 21000 WEI)
    to:                         0x80+0x14/  0x1dcf117c651e34c9e0e397b271bc59477b0fd0fa
    eth:                        0x80+0x07/  0x038d7ea4c68000    (0.001E+18 = 0.001 ETH)
    data:                       0x80
    access_list:                0xc0


pre-EIP155:
    https://etherscan.io/tx/0xea1093d492a1dcb1bef708f771a99a96ff05dcab81ca76c31940300177fcf49f

0xf86e158512bfb19e608301f8dc94c083e9947cf02b8ffc7d3090ae9aea72df98fd4789056bc75e2d63100000801ca0a254fe085f721c2abe00a2cd244110bfc0df5f4f25461c85d8ab75ebac11eb10a030b7835ba481955b20193a703ebc5fdffeab081d63117199040cdf5a91c68765

    RLP list/size:  0xf7+0x01   0x6e = 0x07 (headers) + 0x67 (payload) > 55 bytes
    nonce                       0x15
    gasprice        0x80+0x05/  0x12bfb19e60
    gaslimit        0x80+0x03/  0x01f8dc
    to              0x80+0x14/  0xc083e9947cf02b8ffc7d3090ae9aea72df98fd47
    eth             0x80+0x09/  0x056bc75e2d63100000
    data            0x80
    v                           0x1c (28)
    r               0x80+0x20/  0xa254fe085f721c2abe00a2cd244110bfc0df5f4f25461c85d8ab75ebac11eb10
    s               0x80+0x20/  0x30b7835ba481955b20193a703ebc5fdffeab081d63117199040cdf5a91c68765

EIP155:
    https://etherscan.io/tx/0xa8f503d99f9eef98e6619ba290b7bf0b55ec0bdce259cfc55734e4d1efc2d198

0xf86c0d8503291dfe6282520894912fd21d7a69678227fe6d08c64222db41477ba08802c558495caa80f08025a06b89e06433a6e7a0401051560b112a0bb6537c0ba229218036ceea43273eaa18a05663272729cda3a852e50bc4cae7cd0bb2ae751c4154978a924682f20a58fb63

    RLP list/size:  0xf7+0x01/  0x07 (headers) + 0x65 (payload)  > 55 bytes
    nonce                       0x0d
    gasprice        0x80+0x05/  0x03291dfe62
    gaslimit        0x80+0x02/  0x5208
    to              0x80+0x14/  0x912fd21d7a69678227fe6d08c64222db41477ba0
    eth             0x80+0x08/  0x02c558495caa80f0
    data            0x80/
    +v                          0x25 (37)                           (EIP155)                            (EIP155 signs {chainid, 0, 0} extra elements)
    r               0x80+0x20/  0x6b89e06433a6e7a0401051560b112a0bb6537c0ba229218036ceea43273eaa18      (EIP155 signs {chainid, 0, 0} extra elements)
    s               0x80+0x20/  0x5663272729cda3a852e50bc4cae7cd0bb2ae751c4154978a924682f20a58fb63      (EIP155 signs {chainid, 0, 0} extra elements)

EIP2930:
https://etherscan.io/tx/0x2f52f310c2f9202c9e7ea81e042bcfde637328051d195551b13a284686b32726

f905c201822db4850cf4c8f45c8304b56594d02c359ba867796c5a595c66f914dec0e37abc7b80b8a4ecfc9f5e000000000000000000000000d51a44d3fae010294c616388b506acda1bfaae460000000000000000000000000000000000000000000000000000000000000002000000000000000000000000000000000000000000000003585bc00000000000000000000000000000000000000000000000000000000000000000000000000000000000000000000000000000000000000000000000000000000011f8339276f904b2f902ac94d51a44d3fae010294c616388b506acda1bfaae46f90294a00000000000000000000000000000000000000000000000000000000000000011a0000000000000000000000000000000000000000000000000000000000000000ea0000000000000000000000000000000000000000000000000000000000000001aa0000000000000000000000000000000000000000000000000000000000000001ea00000000000000000000000000000000000000000000000000000000000000007a00000000000000000000000000000000000000000000000000000000000000005a00000000000000000000000000000000000000000000000000000000000000000a0000000000000000000000000000000000000000000000000000000000000000aa0000000000000000000000000000000000000000000000000000000000000000ca0d833147d7dc355ba459fc788f669e58cfaf9dc25ddcd0702e87d69c7b5124289a00000000000000000000000000000000000000000000000000000000000000010a00000000000000000000000000000000000000000000000000000000000000001a0000000000000000000000000000000000000000000000000000000000000001da0d833147d7dc355ba459fc788f669e58cfaf9dc25ddcd0702e87d69c7b512428aa00000000000000000000000000000000000000000000000000000000000000017a00000000000000000000000000000000000000000000000000000000000000003a0000000000000000000000000000000000000000000000000000000000000001ca00000000000000000000000000000000000000000000000000000000000000023a0d833147d7dc355ba459fc788f669e58cfaf9dc25ddcd0702e87d69c7b512428ba00000000000000000000000000000000000000000000000000000000000000002f87a94c02aaa39b223fe8d0a0e5c4f27ead9083c756cc2f863a0cbfe8b515cbdedd534543fab9b8cd0add753173ced79c5adc0a43c32fa2430cfa0ad97560a268614f479889591062e8a5bcb0ab0e01761e16df370e46f8fd2b2eda09b354f30d74ca151470e4c01c97d425c838beac0ab30a0bd396660e4405f8beed6948f68f4810cce3194b6cb6f3d50fa58c2c9bdd1d5c0f8fe94dac17f958d2ee523a2206206994597c13d831ec7f8e7a00000000000000000000000000000000000000000000000000000000000000000a032386aa1ea2888e40243b524a67e7408609a4257cebaa46f72ca08964fad63c9a0000000000000000000000000000000000000000000000000000000000000000aa00000000000000000000000000000000000000000000000000000000000000003a00000000000000000000000000000000000000000000000000000000000000004a0eb449bc003e7395128833de1fb3384246962a9d4d29c66083486accd9139c704a09c6eac2ef8805f7aa2534fea9ff36aaf0fa5c6bc4f929642813bb168ea8c5e6af794c4ad29ba4b3c580e6d59105fff484999997675ffe1a00000000000000000000000000000000000000000000000000000000000000004f794d02c359ba867796c5a595c66f914dec0e37abc7be1a0c85b1f5559310c833a70b1e26c742ff5e20cd6d984e1ae9c4d82f7d7c31394c401a01a2ea66c572e7a26f59fd562b5acf2e08c87ec90ffc92bff2ab928f688c96aa1a04e897a5aae9a1a46fbc7f599fe60c497237a2ae3c27007abc44a239673def866

f9/05c2/
01
82/2db4
85/0cf4c8f45c
83/04b565
94/d02c359ba867796c5a595c66f914dec0e37abc7b
80/
b8/a4/ecfc9f5e
      000000000000000000000000d51a44d3fae010294c616388b506acda1bfaae46
      0000000000000000000000000000000000000000000000000000000000000002
      000000000000000000000000000000000000000000000003585bc00000000000
      0000000000000000000000000000000000000000000000000000000000000000
      00000000000000000000000000000000000000000000000000000011f8339276
f9/04b2/f902ac94d51a44d3fae010294c616388b506acda1bfaae46f90294a00000000000000000000000000000000000000000000000000000000000000011a0000000000000000000000000000000000000000000000000000000000000000ea0000000000000000000000000000000000000000000000000000000000000001aa0000000000000000000000000000000000000000000000000000000000000001ea00000000000000000000000000000000000000000000000000000000000000007a00000000000000000000000000000000000000000000000000000000000000005a00000000000000000000000000000000000000000000000000000000000000000a0000000000000000000000000000000000000000000000000000000000000000aa0000000000000000000000000000000000000000000000000000000000000000ca0d833147d7dc355ba459fc788f669e58cfaf9dc25ddcd0702e87d69c7b5124289a00000000000000000000000000000000000000000000000000000000000000010a00000000000000000000000000000000000000000000000000000000000000001a0000000000000000000000000000000000000000000000000000000000000001da0d833147d7dc355ba459fc788f669e58cfaf9dc25ddcd0702e87d69c7b512428aa00000000000000000000000000000000000000000000000000000000000000017a00000000000000000000000000000000000000000000000000000000000000003a0000000000000000000000000000000000000000000000000000000000000001ca00000000000000000000000000000000000000000000000000000000000000023a0d833147d7dc355ba459fc788f669e58cfaf9dc25ddcd0702e87d69c7b512428ba00000000000000000000000000000000000000000000000000000000000000002f87a94c02aaa39b223fe8d0a0e5c4f27ead9083c756cc2f863a0cbfe8b515cbdedd534543fab9b8cd0add753173ced79c5adc0a43c32fa2430cfa0ad97560a268614f479889591062e8a5bcb0ab0e01761e16df370e46f8fd2b2eda09b354f30d74ca151470e4c01c97d425c838beac0ab30a0bd396660e4405f8beed6948f68f4810cce3194b6cb6f3d50fa58c2c9bdd1d5c0f8fe94dac17f958d2ee523a2206206994597c13d831ec7f8e7a00000000000000000000000000000000000000000000000000000000000000000a032386aa1ea2888e40243b524a67e7408609a4257cebaa46f72ca08964fad63c9a0000000000000000000000000000000000000000000000000000000000000000aa00000000000000000000000000000000000000000000000000000000000000003a00000000000000000000000000000000000000000000000000000000000000004a0eb449bc003e7395128833de1fb3384246962a9d4d29c66083486accd9139c704a09c6eac2ef8805f7aa2534fea9ff36aaf0fa5c6bc4f929642813bb168ea8c5e6af794c4ad29ba4b3c580e6d59105fff484999997675ffe1a00000000000000000000000000000000000000000000000000000000000000004f794d02c359ba867796c5a595c66f914dec0e37abc7be1a0c85b1f5559310c833a70b1e26c742ff5e20cd6d984e1ae9c4d82f7d7c31394c4
01/
a0/1a2ea66c572e7a26f59fd562b5acf2e08c87ec90ffc92bff2ab928f688c96aa1
a0/4e897a5aae9a1a46fbc7f599fe60c497237a2ae3c27007abc44a239673def866

    +transaction_type:                      0x01                    (EIP2930)
    RLP list/size:              0xf7+0x02/  0x05c2
    +chainId:                               0x01                    (EIP2930)
    nonce:                      0x80+0x02/  0x2db4
    gasPrice:                   0x80+0x05/  0x0cf4c8f45c
    gasLimit:                   0x80+0x03/  0x04b565
    to:                         0x80+0x14/  0xd02c359ba867796c5a595c66f914dec0e37abc7b
    value:                      0x80/
    data:                       0xb7+0x01/  0xa4
                                            ecfc9f5e000000000000000000000000d51a44d3fae010294c616388b506acda
                                            1bfaae4600000000000000000000000000000000000000000000000000000000
                                            00000002000000000000000000000000000000000000000000000003585bc000
                                            0000000000000000000000000000000000000000000000000000000000000000
                                            0000000000000000000000000000000000000000000000000000000000000011
                                            f8339276
    +accessList                 0xf7+0x02/  0x04b2                  (EIP2930)
                                    0xf7+0x02/  0x02ac
                                        0x80+0x14/  0xd51a44d3fae010294c616388b506acda1bfaae46      
                                        0xf7+0x02/  0x0294
                                            0x80+0x20/  0x0000000000000000000000000000000000000000000000000000000000000011
                                            0x80+0x20/  0x000000000000000000000000000000000000000000000000000000000000000e
                                            0x80+0x20/  0x000000000000000000000000000000000000000000000000000000000000001a
                                            0x80+0x20/  0x000000000000000000000000000000000000000000000000000000000000001e
                                            0x80+0x20/  0x0000000000000000000000000000000000000000000000000000000000000007
                                            0x80+0x20/  0x0000000000000000000000000000000000000000000000000000000000000005
                                            0x80+0x20/  0x0000000000000000000000000000000000000000000000000000000000000000
                                            0x80+0x20/  0x000000000000000000000000000000000000000000000000000000000000000a
                                            0x80+0x20/  0x000000000000000000000000000000000000000000000000000000000000000c
                                            0x80+0x20/  0xd833147d7dc355ba459fc788f669e58cfaf9dc25ddcd0702e87d69c7b5124289
                                            0x80+0x20/  0x0000000000000000000000000000000000000000000000000000000000000010
                                            0x80+0x20/  0x0000000000000000000000000000000000000000000000000000000000000001
                                            0x80+0x20/  0x000000000000000000000000000000000000000000000000000000000000001d
                                            0x80+0x20/  0xd833147d7dc355ba459fc788f669e58cfaf9dc25ddcd0702e87d69c7b512428a
                                            0x80+0x20/  0x0000000000000000000000000000000000000000000000000000000000000017
                                            0x80+0x20/  0x0000000000000000000000000000000000000000000000000000000000000003
                                            0x80+0x20/  0x000000000000000000000000000000000000000000000000000000000000001c
                                            0x80+0x20/  0x0000000000000000000000000000000000000000000000000000000000000023
                                            0x80+0x20/  0xd833147d7dc355ba459fc788f669e58cfaf9dc25ddcd0702e87d69c7b512428b
                                            0x80+0x20/  0x0000000000000000000000000000000000000000000000000000000000000002
                                    0xf7+0x01/    0x7a
                                        0x80+0x14/  0xc02aaa39b223fe8d0a0e5c4f27ead9083c756cc2
                                        0xf7+0x01   0x63
                                            0x80+0x20/  0xcbfe8b515cbdedd534543fab9b8cd0add753173ced79c5adc0a43c32fa2430cf
                                            0x80+0x20/  0xad97560a268614f479889591062e8a5bcb0ab0e01761e16df370e46f8fd2b2ed
                                            0x80+0x20/  0x9b354f30d74ca151470e4c01c97d425c838beac0ab30a0bd396660e4405f8bee
                                    0xc0+0x16/
                                        0x80+0x14/  0x8f68f4810cce3194b6cb6f3d50fa58c2c9bdd1d5
                                        0xc0/
                                    0xf7+0x01/  0xfe
                                        0x80+0x14/  0xdac17f958d2ee523a2206206994597c13d831ec7
                                        0xf7+0x01/  0xe7
                                            0x80+0x20/  0x0000000000000000000000000000000000000000000000000000000000000000
                                            0x80+0x20/  0x32386aa1ea2888e40243b524a67e7408609a4257cebaa46f72ca08964fad63c9
                                            0x80+0x20/  0x000000000000000000000000000000000000000000000000000000000000000a
                                            0x80+0x20/  0x0000000000000000000000000000000000000000000000000000000000000003
                                            0x80+0x20/  0x0000000000000000000000000000000000000000000000000000000000000004
                                            0x80+0x20/  0xeb449bc003e7395128833de1fb3384246962a9d4d29c66083486accd9139c704
                                            0x80+0x20/  0x9c6eac2ef8805f7aa2534fea9ff36aaf0fa5c6bc4f929642813bb168ea8c5e6a
                                    0xc0+0x37/
                                        0x80+0x14/  0xc4ad29ba4b3c580e6d59105fff484999997675ff
                                        0xc0+0x21/
                                            0x80+0x20/  0x0000000000000000000000000000000000000000000000000000000000000004
                                    0xc0+0x37/
                                        0x80+0x14/  0xd02c359ba867796c5a595c66f914dec0e37abc7b
                                        0xc0+0x21/
                                            0x80+0x20/  0xc85b1f5559310c833a70b1e26c742ff5e20cd6d984e1ae9c4d82f7d7c31394c4
    +signatureYParity                       0x01                    (EIP2930)
    signatureR                  0x80+0x20/  0x1a2ea66c572e7a26f59fd562b5acf2e08c87ec90ffc92bff2ab928f688c96aa1
    signatureS                  0x80+0x20/  0x4e897a5aae9a1a46fbc7f599fe60c497237a2ae3c27007abc44a239673def866

EIP1559:
    https://etherscan.io/tx/0x033098dace41ef6c4876ff853375aa97a35644e2a034ce88f765e5678e8a35ac

0x02f873010184583702008506bcfcef3a8252089429eca176157ba854c2dd7a14a27b4a253c8a01c9884639df38ec69f3bc80c001a0da23340cb8a3e75917bfc2a3cb3685046ee3bdb8527bb0b3f455baafba235ce4a01d2bb7a39793211811face204c35fa9de11229b93f3a300f0c512ec8ffd11a31

    +transaction_type                       0x02                    (EIP2930)
    RLP list/size:              0xf7+0x01/  0x09(headers)+0x6A (payload)  > 55 bytes
    +chain_id                               0x01                    (EIP2930)
    nonce                                   0x01
    +max_priority_fee_per_gas   0x80+0x04/  0x58370200              (EIP1559)
    +max_fee_per_gas            80+0x05/    0x06bcfcef3a            (EIP1559)
    gas_limit                   0x80+0x02/  0x5208
    to                          0x80+0x14/  29eca176157ba854c2dd7a14a27b4a253c8a01c9
    eth                         0x80+0x08/  0x4639df38ec69f3bc
    data                        0x80/
    +access_list                0xc0/                               (EIP2930)
    +signature_y_parity                     0x01                    (EIP2930)
    signature_r                 0x80+0x20/  0xda23340cb8a3e75917bfc2a3cb3685046ee3bdb8527bb0b3f455baafba235ce4
    signature_s                 0x80+0x20/  0x1d2bb7a39793211811face204c35fa9de11229b93f3a300f0c512ec8ffd11a31

EIP1559 with access list:
https://etherscan.io/tx/0x900aaf292c81909d9bc4d50812f30b36d44c774338b111f174b77d8a1e17e1c1

0x02f9055401826eb780850e78a5df3383124f8094a57bd00134b2850b2a1c55860c9e9ea100fdd6cf80b902041cff79cd000000000000000000000000aa2ec16d77cfc057fb9c516282fef9da9de1e987000000000000000000000000000000000000000000000000000000000000004000000000000000000000000000000000000000000000000000000000000001844f0c7c0a0000000000000000000000000000000000000000000000000000000000000bb8000000000000000000000000c02aaa39b223fe8d0a0e5c4f27ead9083c756cc2000000000000000000000000dac17f958d2ee523a2206206994597c13d831ec700000000000000000000000056178a0d5f301baf6cf3e1cd53d9863437345bf9000000000000000000000000000000000000000000000000002386f26fc100000000000000000000000000000000000000000000000000a2a15d09519be00000000000000000000000000000000000000000000000cd5d9c9ffa83c8870754000000000000000000000000000000000000000000000000002ad622051f0a400000000000000000000000000000000000000000000003a5828e00e9d7bb9b347e0000000000000000000000000000000000000000000000000de0b6b3a764000000000000000000000000000000000000000000000000000000000000612782c2000000000000000000000000000000000000000000000000000000000000003300000000000000000000000000000000000000000000000000000000f902e2d694a56006a9bc78fd64404b34d44f06d1141f8589bec0d694e592427a0aece92de3edee1f18e0157c05861564c0f8fe94dac17f958d2ee523a2206206994597c13d831ec7f8e7a0f79325ef15d73bc873d975b0e4eedaf108f1a270300e4b40424347eae19bc685a0af50917ef266a63852df327a118d37bd04d770347c3dfc528d177928d9263066a00000000000000000000000000000000000000000000000000000000000000000a0000000000000000000000000000000000000000000000000000000000000000aa00000000000000000000000000000000000000000000000000000000000000004a00000000000000000000000000000000000000000000000000000000000000003a0447ca931bbc745ec7d2310d11914e4e40b840765b32592a566191228fbbd2ce4d694aa2ec16d77cfc057fb9c516282fef9da9de1e987c0f8bc94c02aaa39b223fe8d0a0e5c4f27ead9083c756cc2f8a5a00a57c8bae4ecff7c613785bbda00a69fbdda07ce911b9bfb285742752e6b4215a030bd84b96629f958113934633d3bd1b64c3d259a85c57ceac65da8c5ec9bf3a7a0b0b00dbdb054c95b5c2e5f3f7facd24c4530e27329e985fe8efb5f6876c253f9a0217fdff7afc5cd5a4e8ef4146b5a8c30926ffa20f0ff879ffdc9ed3476cd86eea040f963d8ab5de5259e130f6865b75ceb44638428ca149b7fe63a511f142fedb7f8dd944e68ccd3e89f51c3074ca5072bbac773960dfa36f8c6a0ad860a26b2adedd5a0c5d198c9503a420ba615f9041c00093858eff051edf0a0a00000000000000000000000000000000000000000000000000000000000000001a00000000000000000000000000000000000000000000000000000000000000000a00000000000000000000000000000000000000000000000000000000000000004a0000000000000000000000000000000000000000000000000000000000000000da0000000000000000000000000000000000000000000000000000000000000000c01a0cba87bd34ba8ff68e25d6b7ebd29833d64f52f2b9c2b835183b830c9dec091eba0307598bd8cb3b2c8f1ae26f5faab724bd682a898983f9116d989e05b71836c36

    +transaction_type                       0x02                    (EIP2930)
    RLP list/size:              0xf7+0x02/  0x0554
    +chain_id                               0x01                    (EIP2930)
    nonce                       0x82        0x6eb7
    +max_priority_fee_per_gas   0x80/                               (EIP1559)
    +max_fee_per_gas            80+0x05/    0x0e78a5df33            (EIP1559)
    gas_limit                   0x80+0x03/  0x124f80
    to                          0x80+0x14/  a57bd00134b2850b2a1c55860c9e9ea100fdd6cf
    eth                         0x80/       
    data                        0xb7+0x02/  0x0204
                                            0x1cff79cd
                                            0x000000000000000000000000aa2ec16d77cfc057fb9c516282fef9da9de1e987
                                            0x0000000000000000000000000000000000000000000000000000000000000040
                                            0x0000000000000000000000000000000000000000000000000000000000000184
                                            0x4f0c7c0a00000000000000000000000000000000000000000000000000000000
                                            0x00000bb8000000000000000000000000c02aaa39b223fe8d0a0e5c4f27ead908
                                            0x3c756cc2000000000000000000000000dac17f958d2ee523a2206206994597c1
                                            0x3d831ec700000000000000000000000056178a0d5f301baf6cf3e1cd53d98634
                                            0x37345bf9000000000000000000000000000000000000000000000000002386f2
                                            0x6fc100000000000000000000000000000000000000000000000000a2a15d0951
                                            0x9be00000000000000000000000000000000000000000000000cd5d9c9ffa83c8
                                            0x870754000000000000000000000000000000000000000000000000002ad62205
                                            0x1f0a400000000000000000000000000000000000000000000003a5828e00e9d7
                                            0xbb9b347e0000000000000000000000000000000000000000000000000de0b6b3
                                            0xa764000000000000000000000000000000000000000000000000000000000000
                                            0x612782c200000000000000000000000000000000000000000000000000000000
                                            0x0000003300000000000000000000000000000000000000000000000000000000
    +access_list                0xf7+0x02/   0x02e2
                                    0xc0+0x16/
                                        0x80+0x14/  0xa56006a9bc78fd64404b34d44f06d1141f8589be
                                        0xc0/
                                    0xc0+0x16/
                                        0x80+0x14/  0xe592427a0aece92de3edee1f18e0157c05861564
                                        0xc0/
                                    0xf7+0x01/  0xfe
                                        0x80+0x14/  0xdac17f958d2ee523a2206206994597c13d831ec7
                                        0xf7+0x01/  0xe7
                                            0x80+0x20/  0xf79325ef15d73bc873d975b0e4eedaf108f1a270300e4b40424347eae19bc685
                                            0x80+0x20/  0xaf50917ef266a63852df327a118d37bd04d770347c3dfc528d177928d9263066
                                            0x80+0x20/  0x0000000000000000000000000000000000000000000000000000000000000000
                                            0x80+0x20/  0x000000000000000000000000000000000000000000000000000000000000000a
                                            0x80+0x20/  0x0000000000000000000000000000000000000000000000000000000000000004
                                            0x80+0x20/  0x0000000000000000000000000000000000000000000000000000000000000003
                                            0x80+0x20/  0x447ca931bbc745ec7d2310d11914e4e40b840765b32592a566191228fbbd2ce4
                                    0xc0+0x16/
                                        0x80+0x14/  0xaa2ec16d77cfc057fb9c516282fef9da9de1e987
                                        0xc0/
                                    0xf7+0x01/  0xbc        (248/188)
                                        0x80+0x14/  0xc02aaa39b223fe8d0a0e5c4f27ead9083c756cc2  (148/..)
                                        0xf7+0x01/  0xa5    (248/165)
                                            0x80+0x20/  0x0a57c8bae4ecff7c613785bbda00a69fbdda07ce911b9bfb285742752e6b4215  (160/..)
                                            0x80+0x20/  0x30bd84b96629f958113934633d3bd1b64c3d259a85c57ceac65da8c5ec9bf3a7
                                            0x80+0x20/  0xb0b00dbdb054c95b5c2e5f3f7facd24c4530e27329e985fe8efb5f6876c253f9
                                            0x80+0x20/  0x217fdff7afc5cd5a4e8ef4146b5a8c30926ffa20f0ff879ffdc9ed3476cd86ee
                                            0x80+0x20/  0x40f963d8ab5de5259e130f6865b75ceb44638428ca149b7fe63a511f142fedb7
                                    0xf7+0x01/  0xdd
                                        0x80+0x14/  0x4e68ccd3e89f51c3074ca5072bbac773960dfa36
                                        0xf7+0x01/  0xc6
                                            0x80+0x20/  0xad860a26b2adedd5a0c5d198c9503a420ba615f9041c00093858eff051edf0a0
                                            0x80+0x20/  0x0000000000000000000000000000000000000000000000000000000000000001
                                            0x80+0x20/  0x0000000000000000000000000000000000000000000000000000000000000000
                                            0x80+0x20/  0x0000000000000000000000000000000000000000000000000000000000000004
                                            0x80+0x20/  0x000000000000000000000000000000000000000000000000000000000000000d
                                            0x80+0x20/  0x000000000000000000000000000000000000000000000000000000000000000c
    +signature_y_parity                     0x01                    (EIP2930)
    signature_r                 0x80+0x20/  0xcba87bd34ba8ff68e25d6b7ebd29833d64f52f2b9c2b835183b830c9dec091eb
    signature_s                 0x80+0x20/  0x307598bd8cb3b2c8f1ae26f5faab724bd682a898983f9116d989e05b71836c36

